S023000041544D65676133325F5350495F466C6173685F4669726D776172652E7372656359
S11300000C942A000C9434000C9434000C943400A6
S11300100C9434000C9434000C9434000C9434008C
S11300200C9434000C9434000C9434000C9434007C
S11300300C9434000C9434000C9434000C9434006C
S11300400C9434000C9434000C9434000C9434005C
S11300500C94340011241FBECFE5D8E0DEBFCDBF21
S11300600E9436000C9471000C940000CF93DF932F
S1130070CDB7DEB7DA950FB6F894DEBF0FBECDBFAD
S113008087B3806B87BB8DB181658DB91EB820E2C3
S113009030E076E063E0CE01939550EFC4987FB9E9
S11300A0779BFECFC49AC4986FB9779BFECF1FB8D5
S11300B0779BFECF1FB8779BFECF1FB8779BFECFF1
S11300C0FE0131965FB9779BFECF4FB14193E8179C
S11300D0F907C1F7C49A2150310921153105F1F608
S10900E0FFCFF894FFCFEE
S9030000FC
